:020000040000FA
:10000000600820209D010000A1010000A301000064
:1000100000000000000000000000000000000000E0
:10002000000000000000000000000000A50100002A
:100030000000000000000000A7010000A90100006E
:10004000AB010000AB010000AB010000AB01000000
:10005000AB010000AB010000AB010000AB010000F0
:1000600000000000AB010000AB0100000000000038
:1000700000000000AB010000AB0100006D1F00009C
:10008000CD1E0000AB010000AB010000AB01000081
:10009000AB010000AB010000000000000000000008
:1000A000AB010000AB0100000000000000000000F8
:1000B000AB01000000000000AB010000AB0100003C
:1000C00000F002F800F05AF812A030C808382418DE
:1000D0002D18AC4201D100F051F80FCCA246AB462E
:1000E0000CA730CF2D1B083F3F197C427F1E544484
:1000F0002D090426F441641EAC4201D300F03EF801
:100100000126334200D0FB1A3343984754465D46DC
:10011000DFE70000E42500000426000000000000E6
:10012000103A02D378C878C1FAD8520701D330C840
:1001300030C101D504680C60704700000000000069
:100140007047000000000000002300240025002666
:10015000103A01D378C1FBD8520700D330C100D583
:100160000B60704710B5642902D100F077F810BD1C
:10017000002010BD1FB51FBD10B510BD00F098FACE
:100180001146FFF7F7FF01F0B1FF00F0B0FA03B43A
:10019000FFF7F2FF03BC01F02FFF00000648004705
:1001A000FEE7FEE7FEE7FEE7FEE7FEE70348044959
:1001B000024A044B70470000C10000006007202085
:1001C00060082020600720200FB41CB5074B06AA4A
:1001D0007B4469460090059800F00BFA00206946C0
:1001E00000F01AFA1CBC08BC04B018474504000013
:1001F000F8B50E460446002020622046E168884794
:10020000002829D0252802D06268A16820E0E16892
:1002100020460027884705001ED028464138192867
:1002200002D80127FF0220353246204627602946A2
:10023000FFF798FF002808D0012804D0F61DF60823
:10024000F6000836D9E7361DD7E762682846A16868
:100250009047206A401CCFE7206AF8BDF7B500251B
:1002600075291068009914A611D0C046C046002810
:1002700002DA404211A608E0009909688A0701D510
:100280000FA602E0490704D50EA6012501E0C046ED
:10029000C046009F0024243704E000F0C2F930314A
:1002A0003955641C0028F8D12B4632462146009867
:1002B00000F041F9FEBD0000000000002D0000002C
:1002C0002B0000002000000010B5044603E001F000
:1002D000FBFE401C08D020780549641C0028F6D19C
:1002E0000A2001F0F1FE10BD0020C04310BD000047
:1002F000EC0420207047704770470000F0B5FF25E0
:100300002D04C609C209FF2704462E400137CB0938
:100310003E4348402A402B400746002A6BD0002B22
:1003200069D0AA4267D0AB4265D0002800DA3246D5
:100330000125ED0529432C4309022002090AD21A9E
:100340004B0C7F24E31A434C000A7C44E35C7D247D
:100350002404121914145B00A218884201D3521C01
:1003600000E0400049420C465C4324115C43DB0141
:100370006415E318040A5C43C502200D0C4644438F
:100380006419250A5D432303EC0C0D466543000305
:100390000019EB184C42A34201D35B18401CD40552
:1003A0002018002B07D05B00C91804D3401C00297B
:1003B00001D1400840003F2189048A4209D3002A24
:1003C00008DC1106090F04D0032149074018C00FAB
:1003D000C007F0BD01224100120689187F22520693
:1003E0009142F6D205214907C84201D59010F0BDCF
:1003F000FF20C005F0BD002F00DA32461648AA42A1
:1004000007D2AB4205D21902090E17D0F80FC00768
:10041000F0BDFF2563002D06AB42F9D84900A94283
:10042000F6D8AB4201D1A942F2D0A94201D10021B4
:1004300001E061004908D0050843F0BD1102090E32
:10044000FBD0FF200243D005F0BD0A46014610460E
:1004500054E70000222300000000C07F10B50146D1
:100460009E240002CA15A307002A02D01843002ABE
:1004700004DBA21A002A0CDDD04010BD1206120EB9
:1004800001D140004008A21A03D4D04040420028C5
:10049000F3DDFF2248001206904201D9002010BD72
:1004A000C817C043584010BD0102C21504D0012333
:1004B000DB071943002A0ADB9E239A1A02D4084656
:1004C000D0407047FF2241001206914201D900201E
:1004D0007047C017C04370471F22030C02D10F2280
:1004E00000041CD0030E01D10002083A030F01D111
:1004F0000001121F830F01D18000921E002801DB32
:100500004000521ED2055118021251181922904073
:1005100004D3491C002801D1490849000846704706
:10052000C10FC90700D04042012292071143D3E70F
:1005300001218907D0E7FFB504460D4681B024307C
:1005400000902168880604D51022E069914321605B
:1005500000E00120A84201DD471B00E000270498CD
:10056000A1697A191018081AA0612078C00602D46F
:100570002046C046C046002608E003986268A1688D
:10058000805D9047206A401C761C20620498864259
:10059000F3DB2078C0060AD52046C046C04606E0F8
:1005A0006268A16830209047206A401C206238466B
:1005B0007F1E0028F4DC07E000986268A168405DB7
:1005C0009047206A401C206228466D1E0028F3DCFC
:1005D0002046C046C0462078000602D5022005B05D
:1005E000F0BD0120FBE7000001694A1C02610878A8
:1005F000704700B58FB00291002105910549019324
:1006000079440391114604906846FFF7F1FD0FB05D
:1006100000BD0000E5FFFFFF0A681070521C0A6071
:10062000704701468008081A02091018020A1018BB
:10063000020C1018C008820012185200891A01E03A
:10064000401C0A390A29FBD27047000010B5FF236D
:100650001B0644009C421DD84C009C421AD80346FD
:10066000124A0B4307D4401A02D3EFF3008010BDA7
:10067000EFF3008010BD081A03D3EFF3008090431E
:1006800005E0EFF3008001219043C907084380F3A0
:10069000008810BD0D231B041A4204D0114600200F
:1006A00000F02DF810BD00F041F810BD00000090E2
:1006B000754600F043F8AE46050069465346C0084B
:1006C000C000854618B020B5FFF770FD60BCB64687
:1006D00000260027C0C5C0C5C0C5C0C5C0C5C0C5AF
:1006E000C0C5C0C5403D490849008D46704710B59A
:1006F0000446C046C0462046FFF749FD10BDC8026B
:1007000012D54803400F002804D0C803C04301217C
:1007100088407047EFF300800001000903210907BA
:10072000084380F3008870470020704710B50248E6
:1007300000F008F810BD00000000C07F00487047BE
:100740000800202010B50C461107090F092904D014
:100750000A290AD008290CD104E011460820FFF725
:10076000CEFF06E0510606D501E0510601D5012075
:10077000C007214610BDD10607D501010909CC08E3
:100780004907000E0006044309E0410F2002490713
:10079000000A0143200E00061D22D14101430846F4
:1007A000E7E7811E091F00BFFCD27047F0B583B098
:1007B0000B794A79002A2AD01A4A1B4C1B4F212553
:1007C0002D01202B00D07035861802190092C21915
:1007D000002B00D188251768464C27407F191760E9
:1007E000576827407D1955603568804F3D4035601A
:1007F00075683D4075600025009C256065608F240C
:10080000E44315692540156155692540556101AAE4
:1008100013718B79537109680191114600F008F842
:1008200003B0F0BD38180000581800007818000018
:10083000F0B584B06B4A82180292734BC618784B9D
:10084000C21800922A4BC4180A7901910D68294FE9
:10085000202A03920AD0254BC018002A17D16B1EFC
:10086000029A536023683B40882517E0681E029A6D
:10087000506020683840204B184320606068384042
:1008800018436060012045071C4F104608E06B08C4
:10089000029A536023683B400525ED012B432360FA
:1008A000009903683B402B43036030684F4B18406E
:1008B00030607068184070600020086048608F20C9
:1008C000C043236903402361636903406361019866
:1008D000407903990843BD2101401068084B03404B
:1008E000C818801C106004B0F0BDC0467418000029
:1008F0007018000024F93FF001040000FFFFFFCF53
:100900004000FFCF70B5374A82184B6853603E4BAA
:10091000C3180878222857D8840001A52C59A74667
:10092000BF090000C9090000BF090000C909000093
:10093000C9090000C9090000C9090000C90900006F
:10094000C9090000C9090000C9090000C90900005F
:10095000C9090000C9090000C9090000C90900004F
:10096000AD090000C9090000AD090000C909000077
:10097000C9090000C9090000C9090000C90900002F
:10098000C9090000C9090000C9090000C90900001F
:10099000C9090000C9090000C9090000C90900000F
:1009A000AD090000C9090000AD09000003242407B7
:1009B0001568A543012464072C19146004E003247E
:1009C00024071568A54315600C8AD460CC68064DD1
:1009D00025401C68054E264074191C60097A0143A5
:1009E000116070BD04180000777702008888FDFF51
:1009F00010B507239B04194092008018024A8458BE
:100A00009C436118815010BD3018000010B5029C45
:100A1000A400001911431943014A815010BDC0467A
:100A20005018000092008018014A81507047C0465B
:100A30001018000010B50122120383180C789C6076
:100A40004B7883508978014A815010BD0C11000009
:100A5000B0B51122120283580124A34383508B782E
:100A60000C881C438B882343094C1C408358094D38
:100A70001D402B1983508B79CC791C43097A214373
:100A80007E231940801842689A4351184160B0BDD6
:100A900018670000E798FDFF10B5012212038318C4
:100AA0000C789C604978815010BD0000B0B50248B8
:100AB0000346F833802401E06800202000211970EB
:100AC0001A46083A11701A46103A11701A46183A26
:100AD00011701A46203A11701A46283A11701A46B7
:100AE000303A11701A46383A11701A46403A11706D
:100AF0001A46483A11701A46503A11701A46583A36
:100B000011701A46603A11701A46683A11701A4606
:100B1000703A11701A46783A11701A46803A11707C
:100B20001A46883A11701A46903A11701A46983A45
:100B300011701A46A03A11701A46A83A11701A4656
:100B4000B03A11701A46B83A11701A46C03A11708C
:100B50001A46C83A11701A46D03A11701A46D83A55
:100B600011701A46E03A11701A46E83A11701A46A6
:100B7000F03A11701A46F83A1170012212029B18CD
:100B8000203C9BD10446F934802321702546083D42
:100B900029702546103D29702546183D29702546A7
:100BA000203D29702546283D29702546303D297075
:100BB0002546383D29702546403D29702546483D4B
:100BC00029702546503D29702546583D29702546F7
:100BD000603D29702546683D29702546703D297085
:100BE0002546783D29702546803D29702546883D5B
:100BF00029702546903D29702546983D2970254647
:100C0000A03D29702546A83D29702546B03D297094
:100C10002546B83D29702546C03D29702546C83D6A
:100C200029702546D03D29702546D83D2970254696
:100C3000E03D29702546E83D29702546F03D2970A4
:100C4000A518F83C2170203B2C469ED10446FA346E
:100C5000802321702546083D29702546103D2970C6
:100C60002546183D29702546203D29702546283DFA
:100C700029702546303D29702546383D2970254686
:100C8000403D29702546483D29702546503D297034
:100C90002546583D29702546603D29702546683D0A
:100CA00029702546703D29702546783D29702546D6
:100CB000803D29702546883D29702546903D297044
:100CC0002546983D29702546A03D29702546A83D1A
:100CD00029702546B03D29702546B83D2970254626
:100CE000C03D29702546C83D29702546D03D297054
:100CF0002546D83D29702546E03D29702546E83D2A
:100D000029702546F03D2970A518F83C2170203B3C
:100D10002C469ED10446FB34802321702546083D95
:100D200029702546103D29702546183D2970254615
:100D3000203D29702546283D29702546303D2970E3
:100D40002546383D29702546403D29702546483DB9
:100D500029702546503D29702546583D2970254665
:100D6000603D29702546683D29702546703D2970F3
:100D70002546783D29702546803D29702546883DC9
:100D800029702546903D29702546983D29702546B5
:100D9000A03D29702546A83D29702546B03D297003
:100DA0002546B83D29702546C03D29702546C83DD9
:100DB00029702546D03D29702546D83D2970254605
:100DC000E03D29702546E83D29702546F03D297013
:100DD000A518F83C2170203B2C469ED10446FC34DB
:100DE000802321702546083D29702546103D297035
:100DF0002546183D29702546203D29702546283D69
:100E000029702546303D29702546383D29702546F4
:100E1000403D29702546483D29702546503D2970A2
:100E20002546583D29702546603D29702546683D78
:100E300029702546703D29702546783D2970254644
:100E4000803D29702546883D29702546903D2970B2
:100E50002546983D29702546A03D29702546A83D88
:100E600029702546B03D29702546B83D2970254694
:100E7000C03D29702546C83D29702546D03D2970C2
:100E80002546D83D29702546E03D29702546E83D98
:100E900029702546F03D2970A518F83C2170203BAB
:100EA0002C469ED10446FD34802321702546083D02
:100EB00029702546103D29702546183D2970254684
:100EC000203D29702546283D29702546303D297052
:100ED0002546383D29702546403D29702546483D28
:100EE00029702546503D29702546583D29702546D4
:100EF000603D29702546683D29702546703D297062
:100F00002546783D29702546803D29702546883D37
:100F100029702546903D29702546983D2970254623
:100F2000A03D29702546A83D29702546B03D297071
:100F30002546B83D29702546C03D29702546C83D47
:100F400029702546D03D29702546D83D2970254673
:100F5000E03D29702546E83D29702546F03D297081
:100F6000A518F83C2170203B2C469ED10446FE3447
:100F7000802321702546083D29702546103D2970A3
:100F80002546183D29702546203D29702546283DD7
:100F900029702546303D29702546383D2970254663
:100FA000403D29702546483D29702546503D297011
:100FB0002546583D29702546603D29702546683DE7
:100FC00029702546703D29702546783D29702546B3
:100FD000803D29702546883D29702546903D297021
:100FE0002546983D29702546A03D29702546A83DF7
:100FF00029702546B03D29702546B83D2970254603
:10100000C03D29702546C83D29702546D03D297030
:101010002546D83D29702546E03D29702546E83D06
:1010200029702546F03D2970A518F83C2170203B19
:101030002C469ED1FF30802301700446083C21706D
:101040000446103C21700446183C21700446203CA4
:1010500021700446283C21700446303C217004462F
:10106000383C21700446403C21700446483C2170C5
:101070000446503C21700446583C21700446603CB4
:1010800021700446683C21700446703C217004467F
:10109000783C21700446803C21700446883C2170D5
:1010A0000446903C21700446983C21700446A03CC4
:1010B00021700446A83C21700446B03C21700446CF
:1010C000B83C21700446C03C21700446C83C2170E5
:1010D0000446D03C21700446D83C21700446E03CD4
:1010E00021700446E83C21700446F03C21708418CD
:1010F000F8380170203B20469ED100F09FFBB0BD28
:10110000F0B581B0AE200024214600F015FC204649
:10111000214600F011FC1020214600F00DFC402774
:101120003846214600F008FC8120214600F004FCEE
:10113000CF20214600F000FCA120214600F0FCFB5E
:10114000C820214600F0F8FBA6263046214600F0D4
:10115000F3FBA820214600F0EFFB3F20214600F0E2
:10116000EBFBD320214600F0E7FB2046214600F0B0
:10117000E3FBD520214600F0DFFB802528462146F1
:1011800000F0DAFBD920214600F0D6FBF120214601
:1011900000F0D2FBDA20214600F0CEFB12202146DF
:1011A00000F0CAFBDB20214600F0C6FB3846214692
:1011B00000F0C2FB2020214600F0BEFB02202146A9
:1011C00000F0BAFB8D20214600F0B6FB142021462A
:1011D00000F0B2FBA420214600F0AEFB30462146D1
:1011E00000F0AAFB01480246F83201E06800202026
:1011F0001470114608390C70114610390C701146E4
:1012000018390C70114620390C70114628390C70B1
:10121000114630390C70114638390C70114640397E
:101220000C70114648390C70114650390C7011463B
:1012300058390C70114660390C70114668390C70C1
:10124000114670390C70114678390C70114680398E
:101250000C70114688390C70114690390C7011468B
:1012600098390C701146A0390C701146A8390C70D1
:101270001146B0390C701146B8390C701146C0399E
:101280000C701146C8390C701146D0390C701146DB
:10129000D8390C701146E0390C701146E8390C70E1
:1012A0001146F0390C701146F8390C700121090211
:1012B0005218203D9CD10346F93380221C701D46F4
:1012C000083D2C701D46103D2C701D46183D2C709D
:1012D0001D46203D2C701D46283D2C701D46303D7E
:1012E0002C701D46383D2C701D46403D2C701D460F
:1012F000483D2C701D46503D2C701D46583D2C70AD
:101300001D46603D2C701D46683D2C701D46703D8D
:101310002C701D46783D2C701D46803D2C701D465E
:10132000883D2C701D46903D2C701D46983D2C70BC
:101330001D46A03D2C701D46A83D2C701D46B03D9D
:101340002C701D46B83D2C701D46C03D2C701D46AE
:10135000C83D2C701D46D03D2C701D46D83D2C70CC
:101360001D46E03D2C701D46E83D2C701D46F03DAD
:101370002C705D18F83B1C70203A2B469ED103461A
:10138000FA3380221C701D46083D2C701D46103D0E
:101390002C701D46183D2C701D46203D2C701D469E
:1013A000283D2C701D46303D2C701D46383D2C705C
:1013B0001D46403D2C701D46483D2C701D46503D3D
:1013C0002C701D46583D2C701D46603D2C701D46EE
:1013D000683D2C701D46703D2C701D46783D2C706C
:1013E0001D46803D2C701D46883D2C701D46903D4D
:1013F0002C701D46983D2C701D46A03D2C701D463E
:10140000A83D2C701D46B03D2C701D46B83D2C707B
:101410001D46C03D2C701D46C83D2C701D46D03D5C
:101420002C701D46D83D2C701D46E03D2C701D468D
:10143000E83D2C701D46F03D2C705D18F83B1C708B
:10144000203A2B469ED10346FB3380221C701D465A
:10145000083D2C701D46103D2C701D46183D2C700B
:101460001D46203D2C701D46283D2C701D46303DEC
:101470002C701D46383D2C701D46403D2C701D467D
:10148000483D2C701D46503D2C701D46583D2C701B
:101490001D46603D2C701D46683D2C701D46703DFC
:1014A0002C701D46783D2C701D46803D2C701D46CD
:1014B000883D2C701D46903D2C701D46983D2C702B
:1014C0001D46A03D2C701D46A83D2C701D46B03D0C
:1014D0002C701D46B83D2C701D46C03D2C701D461D
:1014E000C83D2C701D46D03D2C701D46D83D2C703B
:1014F0001D46E03D2C701D46E83D2C701D46F03D1C
:101500002C705D18F83B1C70203A2B469ED1034688
:10151000FC3380221C701D46083D2C701D46103D7A
:101520002C701D46183D2C701D46203D2C701D460C
:10153000283D2C701D46303D2C701D46383D2C70CA
:101540001D46403D2C701D46483D2C701D46503DAB
:101550002C701D46583D2C701D46603D2C701D465C
:10156000683D2C701D46703D2C701D46783D2C70DA
:101570001D46803D2C701D46883D2C701D46903DBB
:101580002C701D46983D2C701D46A03D2C701D46AC
:10159000A83D2C701D46B03D2C701D46B83D2C70EA
:1015A0001D46C03D2C701D46C83D2C701D46D03DCB
:1015B0002C701D46D83D2C701D46E03D2C701D46FC
:1015C000E83D2C701D46F03D2C705D18F83B1C70FA
:1015D000203A2B469ED10346FD3380221C701D46C7
:1015E000083D2C701D46103D2C701D46183D2C707A
:1015F0001D46203D2C701D46283D2C701D46303D5B
:101600002C701D46383D2C701D46403D2C701D46EB
:10161000483D2C701D46503D2C701D46583D2C7089
:101620001D46603D2C701D46683D2C701D46703D6A
:101630002C701D46783D2C701D46803D2C701D463B
:10164000883D2C701D46903D2C701D46983D2C7099
:101650001D46A03D2C701D46A83D2C701D46B03D7A
:101660002C701D46B83D2C701D46C03D2C701D468B
:10167000C83D2C701D46D03D2C701D46D83D2C70A9
:101680001D46E03D2C701D46E83D2C701D46F03D8A
:101690002C705D18F83B1C70203A2B469ED10346F7
:1016A000FE3380221C701D46083D2C701D46103DE7
:1016B0002C701D46183D2C701D46203D2C701D467B
:1016C000283D2C701D46303D2C701D46383D2C7039
:1016D0001D46403D2C701D46483D2C701D46503D1A
:1016E0002C701D46583D2C701D46603D2C701D46CB
:1016F000683D2C701D46703D2C701D46783D2C7049
:101700001D46803D2C701D46883D2C701D46903D29
:101710002C701D46983D2C701D46A03D2C701D461A
:10172000A83D2C701D46B03D2C701D46B83D2C7058
:101730001D46C03D2C701D46C83D2C701D46D03D39
:101740002C701D46D83D2C701D46E03D2C701D466A
:10175000E83D2C701D46F03D2C705D18F83B1C7068
:10176000203A2B469ED1FF30802204700346083B6E
:101770001C700346103B1C700346183B1C7003464C
:10178000203B1C700346283B1C700346303B1C70FA
:101790000346383B1C700346403B1C700346483BE5
:1017A0001C700346503B1C700346583B1C7003469C
:1017B000603B1C700346683B1C700346703B1C700A
:1017C0000346783B1C700346803B1C700346883BF5
:1017D0001C700346903B1C700346983B1C700346EC
:1017E000A03B1C700346A83B1C700346B03B1C701A
:1017F0000346B83B1C700346C03B1C700346C83B05
:101800001C700346D03B1C700346D83B1C7003463B
:10181000E03B1C700346E83B1C700346F03B1C7029
:101820004318F8380470203A18469ED100F006F8A4
:10183000AF20002100F080F801B0F0BDF0B585B018
:10184000012001020491400203900021394FB02091
:1018500002910843C0B20024214600F06DF82046F2
:10186000214600F069F81020214600F065F8049D3B
:1018700058480560039E06600A24204600F002FCDA
:1018800054480561204600F0FDFB524806612046A1
:1018900000F0F8FB782000F04DFA4E480560204635
:1018A00000F0F0FB4B480660204600F0EBFB494897
:1018B0000661204600F0E6FB402000F03BFA454878
:1018C0000560204600F0DEFB4248066005462046E3
:1018D00000F0D8FB2E61204600F0D4FB8025019754
:1018E000387800F027FA04983A4908600A2420461C
:1018F00000F0C8FB039E37480660204600F0C2FB9C
:1019000034480661204600F0BDFB6D1E0837002DEF
:10191000E6D1049C2F4D2C61039828600A2000F02A
:10192000B1FB2C60019F7F1C0299491C08298ED1B4
:1019300005B0F0BD68002020F0B583B001910290A1
:1019400001200602234D2E6047022F600A24204604
:1019500000F098FB2E61204600F094FB2F6120469A
:1019600000F090FB782000F0E5F92E60204600F0B2
:1019700089FB2F60204600F085FB2F61204600F098
:1019800081FB0199481E8141880100F0D3F92E6046
:10199000204600F077FB2F60204600F073FB2F619C
:1019A000204600F06FFB029800F0C4F92E6020463C
:1019B00000F068FB2F60204600F064FB2F6120469A
:1019C00000F060FB2E612F60204600F05BFB2E6074
:1019D00003B0F0BD90320A4010B516498620086069
:1019E00001204204144B1A60144A8724146004072F
:1019F0001C6082239364800404468234D46413659B
:101A000054650F4BCB620F4B4B6081219165D165C3
:101A10000D490A68102313430B600C490A6A0243FC
:101A20000A620A6802430A6009480A4901600163C0
:101A300010BDC0469C804240D0120A400C804240FB
:101A40008100010081000500A0130A4028100A400F
:101A5000A0320A4000034000B0B582B0104C1149DA
:101A60002046FEF7E7FF10492046FEF79FFE1920AB
:101A70000101002520462A46FEF7D4FF00951022DA
:101A8000204629462B46FEF7C1FF204629462A4616
:101A9000FEF7AEFF054801218160016002B0B0BDD4
:101AA00000208640BC260000C02600000031864091
:101AB000B0B582B0104C11492046FEF7BBFF10496B
:101AC0002046FEF7B5FE19200101002520462A46D2
:101AD000FEF7A8FF00951022204629462B46FEF768
:101AE00095FF204629462A46FEF782FF0548012138
:101AF0008160016002B0B0BD00A08640B026000049
:101B0000B426000000B186400C480021016003208B
:101B1000C1430B480246083A13680B401360016842
:101B2000012291430160110203688B43036011039A
:101B3000001F02680A4302607047C04608030B405A
:101B400008010B400548042101601F21416000216C
:101B50008160016805220A430260704710E000E0DE
:101B600010B50B4C0B492046FEF764FF0A4920468E
:101B7000FEF7C8FE094801680122114301600848C8
:101B80000168FF23994301600648026010BDC0460A
:101B900000400840C8260000CC260000285008401D
:101BA00010E400E00851084010B5194C19492046CE
:101BB000FEF772FF18492046FEF74AFF0320C103D3
:101BC000164802688A4302600169304A0A40911C43
:101BD000016141690B220A4334218A434261426810
:101BE00001210A4043688B439A1842608A020C4BD9
:101BF0001C6814431C60FF2212060A4B1C689443A5
:101C0000CA07A2181A6002680A43026010BDC046E3
:101C100000801040E0260000E22600000091104005
:101C2000289010400CE400E010B5144C14492046F4
:101C3000FEF732FF13492046FEF70AFF0321CA03CD
:101C400011480368934303600269104B13401A3331
:101C5000036142690A433C218A434261416801228F
:101C6000114043689343591841609102084B1C6826
:101C70000C431C6001681143016010BD000010405E
:101C8000EC260000EE260000001110400000FFFFCF
:101C90002810104080B500F01DF8FFF79DFEFFF7FB
:101CA00033FFFFF705FFFFF7D7FEFFF759FFFFF7F9
:101CB0007BFFFFF7B9FFFFF745FFB820034900227C
:101CC0000A54742002490A5480BDC046BC05202035
:101CD00044052020F0B581B00D480E4941600E4A00
:101CE00051600E4B59600E4C61600E4D69600E4E96
:101CF00071600E4F79600E490160116019602160BA
:101D00002960316039601020FEF74BFD01B0F0BD55
:101D100000080A40030000B100280A4000A88640DD
:101D20000028864000480840008810400008104005
:101D300001000026F0B583B0029040B23F4E374616
:101D400010370028384600DA30460124210201917C
:101D500001600A25284600F095F96402346028469F
:101D600000F090F9346102984006384600D53046BC
:101D700001990160284600F085F93460284600F09A
:101D800081F9346102988006384600D530460199C1
:101D90000160284600F076F93460284600F072F9B8
:101DA00034610298C006384600D53046019901607A
:101DB000284600F067F93460284600F063F9346182
:101DC00002980007384600D5304601990160284640
:101DD00000F058F93460284600F054F93461029854
:101DE0004007384600D5304601990160284600F08A
:101DF00049F93460284600F045F9346102988007BB
:101E0000384600D5304601990160284600F03AF97D
:101E10003460284600F036F934610298C00700D0DB
:101E2000374601983860284600F02CF9346028467F
:101E300000F028F9346103B0F0BDC04690320A408A
:101E400080B5B42800D3B4201C490860FEF770FBAD
:101E50004549FEF753FA1A4900F04AFB194900F0C8
:101E6000ADFA3F21090600F0A9FAFEF71DFB014675
:101E700002480022FEF7D6FD80BDC0460020864005
:101E800080B5B42800D3B4200C490860FEF750FB9D
:101E90003549FEF733FA0A4900F02AFB094900F0F8
:101EA0008DFA3F21090600F089FAFEF7FDFA014696
:101EB00005480022FEF7B6FD80BDC046E80420209C
:101EC000000020420000204100A08640F0B581B013
:101ED00023480068C0B201283FD1BB4D284600F01E
:101EE00091F9BC4C204600F08DF9206B1D4E3168F5
:101EF00000F064FA04463060286BBB49096800F0C2
:101F00005DFA0646184D294600F034FA00282F469F
:101F100000D1374600263846314600F043FA002803
:101F200000D13E46B04806602046294600F022FA1D
:101F300000280C4F06D100252046294600F00FFA54
:101F4000002800D13D603046FEF7AEFAFFF778FF7B
:101F50003868FEF7A9FAFFF793FF01B0F0BDC0465D
:101F6000205008400400202000003443B0B51B4836
:101F70000068C0B20B2830D1194C20781949096883
:101F8000062803D8184A1154401C2070072824D171
:101F900015480178AA291ED14178FF291BD18179E2
:101FA000EE2918D1114901220A708178C2781202F3
:101FB00051180F4A118002794079000285180D48A6
:101FC000058008B2FEF7ACFA7F49486028B2FEF7F8
:101FD000A7FA8049486000202070B0BD20901040D2
:101FE0007806202024911040EC0620204005202077
:101FF000F4062020F60620207047000080B5FFF789
:1020000049FE0120C003044908600449086004A097
:10201000FEF75AF980BDC04680E200E000E100E032
:10202000426F61726420496E6974205B5B202A2ACA
:10203000204C434B4642202A2A205D5D0D000000C3
:10204000B0B57D21090241431E480368262206E0FF
:10205000E41A051F2D686419A2188A4210D21C4682
:102060000368A34208D10368A34205D10368A342D1
:1020700002D10368A342F3D09C42E9D9E41AEBE70A
:10208000B0BDC046B0B50F490B684001262206E03E
:10209000E41A0D1F2D686419A218824210D21C4642
:1020A0000B68A34208D10B68A34205D10B68A34279
:1020B00002D10B68A342F3D09C42E9D9E41AEBE7C2
:1020C000B0BDC04618E000E007490A68D20708D052
:1020D0000A68D20705D00A68D20702D00A68D20778
:1020E000F3D1C2B28A6170470891104084B0FFF703
:1020F00085FFFFF705F8FEF7D9FC324C0094324813
:102100000025324E324F294632463B4600F020F938
:10211000009430480395294632463B4600F018F9B2
:10212000012081052C4A1160C1032C4A11602C4BFF
:1021300019604103116019600004186010605A268C
:102140003046FFF77DFE7D20C7003846FFF778FF59
:102150003046FFF795FE3846FFF772FF214F039D8B
:102160001C48056018480560006BFEF777F90646C5
:102170001D480068FEF772F9044613484068FEF7F0
:102180006DF9034600960194184C204618A12A4682
:10219000FEF71AF820780028E2D0144A04E0B8616B
:1021A0004A1C48780028DBD011463A68D207F6D09E
:1021B0003A68D207F3D03A68D207F0D03A68D2072B
:1021C000F3D1ECE78FC2753D7C0620205C8FC23DC9
:1021D00017B75139B406202090320A4080E200E05F
:1021E00000E100E00811104000002020F806202047
:1021F0007069643A25642C25642C25642C256420A0
:102200000A000000F0B583B004460068616800F081
:10221000C7F90546A060FEF721F9C1174840401AEA
:102220001D2807D80020E0622063E068E560206197
:1022300003B0F0BD606B00282DD0012853D1E169B7
:10224000284600F055F90290E062E66828463146DB
:1022500000F0A6F90146A06900F04AF90190606219
:102260003046314600F0AAF80146284600F098F9B9
:10227000216900F0A3F80146206A00F039F9074609
:10228000A0620198029900F099F8394600F096F89A
:102290000146206B3CE0A169284600F029F9029034
:1022A00060620120C107206B8843254900F07AF85D
:1022B00000281BD0E069294600F01AF9E16A00F015
:1022C0007DF80746E0621F4E314600F05EF80028B8
:1022D00006D01D4E3846314600F041F8002806D1A0
:1022E000E662374603E0276BE66815E0E76AE668D2
:1022F0002846314600F054F90146206A00F0F8F80B
:1023000039460746A062029800F058F80146384660
:1023100000F054F807462063E5602661084D384612
:10232000294600F032F8002806D0084D38462946E4
:1023300000F015F8002800D1256303B0F0BDC046B9
:1023400000008C420000C8420000C8C200008CC2DD
:1023500010B5029C8261C3610462416310BD10B577
:1023600000F072F8EFF30080800001D5012010BD6D
:10237000002010BD10B500F067F8EFF300804000BA
:10238000800F012800D0002010BD10B500F086F8A5
:10239000EFF300804000800F012801D0012010BD24
:1023A000002010BD10B500F079F8EFF30080800038
:1023B00001D4012010BD002010BD000070B5012522
:1023C000ED0704004C4020D4441A01D2001B091927
:1023D000C60D4B00F2B2FF2A29D01B0E2CD00002F2
:1023E0000C0228432C43D31ADC40051910D2280ACA
:1023F00002D3401C6D0611D0761EF6058019FF2A07
:1024000000DA70BDC00DC00570BD694000F0CEF8A7
:1024100001200543C541521C761CE8E764089C4036
:10242000C90161408900E7D10124A043E4E71B0E04
:10243000440200D0034870BD002AFCD1C00FC00781
:1024400070BD00BF0000C07F0123DB0502000A430E
:102450000DD4DA4203D49A4207D488427047D84256
:1024600014D4D94212D48842704780427047DA426D
:1024700003D59A42F9D5814270475B004200DA42A7
:1024800004D24A00DA4201D28142704710B5024AB2
:10249000FEF7DCF810BD00BF090013040123DB05C3
:1024A00002000A430DD4DA4203D49A4207D4884288
:1024B0007047D84214D4D94212D48842704780421F
:1024C0007047DA4203D59A42F9D5814270475B00E2
:1024D0004200DA4204D24A00DA4201D28142704715
:1024E00010B5024AFEF7B2F810BD00BF090016048D
:1024F00070B5420064414B005C41120E39D01B0E96
:1025000038D0FF2A3CD0FF2B3AD0D2187F3A400275
:102510004902400A490A4518ED0106004E43000AE7
:10252000090A48430104731A4019190C4318990FFA
:1025300004D05B08012149075B1A521CD80904D357
:10254000401CF50301D19D0607D0FF2A08D2D5050E
:1025500006D0E4072043401970BD0125A843F4E7E5
:10256000002A01DCE00770BD2402FF202043C005E3
:1025700070BD1B0EFF2A03D0FF2B01D0E00770BDFA
:10258000FF2636064500B54206D84D00B54203D8B1
:10259000D218FF2A00D0E7E7004870BD0000C07FD6
:1025A00070B50125ED0704004C4022D4441A02D234
:1025B0006C40001B0919C60D4B00F2B2FF2A4BD02C
:1025C0001B0E50D000020C02A8432C43D31ADC404F
:1025D000051B05D5AD0019D36D08761E521E37D0E8
:1025E000F605280A01D2801970BD70416D0603D02E
:1025F00070BD6940FFF7E8FE9C4009026140490058
:1026000001D0401E70BD0124A04370BD6D081DD0D7
:1026100001202B0C01D12D0410302B0E01D12D02E5
:1026200008302B0F01D12D01001DAB0F01D1AD00E2
:10263000801CEB0F01D16D00401C361A121A6D0080
:10264000680AF5054019012A02DB70BD002070BD43
:10265000C036300AC00770BD1B0E440201D1FF2BEB
:1026600000D1024870BD002AF0D070BD0000C07FCC
:102670008182838485868788898B8C8D8E8F9192C9
:1026800093959697999A9C9D9FA0A2A3A5A7A8AA67
:10269000ACAEB0B2B3B5B7B9BCBEC0C2C5C7C9CC89
:1026A000CED1D4D7D9DCDFE2E6E9ECF0F3F7FAFEDD
:1026B0000807C70090010000000100000807C700DC
:1026C000900100000000010008070900020000005E
:1026D000FF7C00000100000000000000000000007E
:1026E000040000001800000000300000040000009A
:1026F0001800000000300000182700000000202013
:102700000800000020010000202700000800202011
:1027100058080000480100000000B4420000B44224
:04000005000000C136
:00000001FF
